0001UNIREC00000000220150112
0002639687******2833         0000000500000000000000000000000000000000000000000000446861060623170107      ATM     0001                                          15315201                 000000000000000000000000000000000000000000000000000000000000000000000000000000000318526170000000000000000000000000000                                                                                                                                                                                                                                                                                                                                
0002639687******8846         0000000500000000000000000000000000000000000000000000460805080237170107      ATM     0001                                          15315201                 000000000000000000000000000000000000000000000000000000000000000000000000000000000353069190000000000000000000000000000                                                                                                                                                                                                                                                                                                                                
0002484777******0598         0000008000000000000000000000000000000000000000000000464835082246170107      ATM     0001                                          15315201                 000000000000000000000000000000000000000000000000000000000000000000000000000000000404505720000000000000000000000000000                                                                                                                                                                                                                                                                                                                                
0002484777******6967         0000000500000000000000000000000000000000000000000000466131082906170107      ATM     0001                                          15315201                 000000000000000000000000000000000000000000000000000000000000000000000000000000000288055940000000000000000000000000000                                                                                                                                                                                                                                                                                                                                
0002639687******8846         0000000500000000000000000000000000000000000000000000467952083652170107      ATM     0001                                          15315201                 000000000000000000000000000000000000000000000000000000000000000000000000000000000353069190000000000000000000000000000                                                                                                                                                                                                                                                                                                                                
0002484777******0577         0000001500000000000000000000000000000000000000000000468775084034170107      ATM     0001                                          15315201                 000000000000000000000000000000000000000000000000000000000000000000000000000000000293493390000000000000000000000000000                                                                                                                                                                                                                                                                                                                                
0002484777******0341         0000010000000000000000000000000000000000000000000000478554091531170107      ATM     0001                                          15315201                 000000000000000000000000000000000000000000000000000000000000000000000000000000000403897920000000000000000000000000000                                                                                                                                                                                                                                                                                                                                
0002621445******9187         0000001000000000000000000000000000000000000000000000487546094039170107      ATM     0001                                          15315201                 000000000000000000000000000000000000000000000000000000000000000000000000000000000282268180000000000000000000000000000                                                                                                                                                                                                                                                                                                                                
0002484777******1310         0000005000000000000000000000000000000000000000000000491439095112170107      ATM     0001                                          15315201                 000000000000000000000000000000000000000000000000000000000000000000000000000000000389251130000000000000000000000000000                                                                                                                                                                                                                                                                                                                                
0002484777******0726         0000001000000000000000000000000000000000000000000000492887095449170107      ATM     0001                                          15315201                 000000000000000000000000000000000000000000000000000000000000000000000000000000000400779870000000000000000000000000000                                                                                                                                                                                                                                                                                                                                
0002484777******1310         0000001000000000000000000000000000000000000000000000495678100158170107      ATM     0001                                          15315201                 000000000000000000000000000000000000000000000000000000000000000000000000000000000265702870000000000000000000000000000                                                                                                                                                                                                                                                                                                                                
0002621445******3316         0000000500000000000000000000000000000000000000000000516932105711170107      ATM     0001                                          15315201                 000000000000000000000000000000000000000000000000000000000000000000000000000000000343759330000000000000000000000000000                                                                                                                                                                                                                                                                                                                                
0002621445******0392         0000002000000000000000000000000000000000000000000000521164110748170107      ATM     0001                                          15315201                 000000000000000000000000000000000000000000000000000000000000000000000000000000000317204270000000000000000000000000000                                                                                                                                                                                                                                                                                                                                
0002621445******2079         0000003500000000000000000000000000000000000000000000539281115315170107      ATM     0001                                          15315201                 000000000000000000000000000000000000000000000000000000000000000000000000000000000266366280000000000000000000000000000                                                                                                                                                                                                                                                                                                                                
0002484777******0515         0000005000000000000000000000000000000000000000000000539716115416170107      ATM     0001                                          15315201                 000000000000000000000000000000000000000000000000000000000000000000000000000000000019121080000000000000000000000000000                                                                                                                                                                                                                                                                                                                                
0002639687******8481         0000001000000000000000000000000000000000000000000000544511120615170107      ATM     0001                                          15315201                 000000000000000000000000000000000000000000000000000000000000000000000000000000000352517660000000000000000000000000000                                                                                                                                                                                                                                                                                                                                
0002484777******1260         0000005000000000000000000000000000000000000000000000554968123258170107      ATM     0001                                          15315201                 000000000000000000000000000000000000000000000000000000000000000000000000000000000357615190000000000000000000000000000                                                                                                                                                                                                                                                                                                                                
0002639687******8614         0000005000000000000000000000000000000000000000000000565980130100170107      ATM     0001                                          15315201                 000000000000000000000000000000000000000000000000000000000000000000000000000000000352779940000000000000000000000000000                                                                                                                                                                                                                                                                                                                                
0002621445******0102         0000003000000000000000000000000000000000000000000000575139132333170107      ATM     0001                                          15315201                 000000000000000000000000000000000000000000000000000000000000000000000000000000000358849550000000000000000000000000000                                                                                                                                                                                                                                                                                                                                
0002621445******2571         0000002000000000000000000000000000000000000000000000595359141911170107      ATM     0001                                          15315201                 000000000000000000000000000000000000000000000000000000000000000000000000000000000329100920000000000000000000000000000                                                                                                                                                                                                                                                                                                                                
0002484777******1310         0000002000000000000000000000000000000000000000000000601636144043170107      ATM     0001                                          15315201                 000000000000000000000000000000000000000000000000000000000000000000000000000000000265702870000000000000000000000000000                                                                                                                                                                                                                                                                                                                                
0002484777******9179         0000015000000000000000000000000000000000000000000000617848155655170107      ATM     0001                                          15315201                 000000000000000000000000000000000000000000000000000000000000000000000000000000000405644270000000000000000000000000000                                                                                                                                                                                                                                                                                                                                
0002484777******7714         0000002000000000000000000000000000000000000000000000618228155847170107      ATM     0001                                          15315201                 000000000000000000000000000000000000000000000000000000000000000000000000000000000277522920000000000000000000000000000                                                                                                                                                                                                                                                                                                                                
0002484777******9179         0000008000000000000000000000000000000000000000000000619199160426170107      ATM     0001                                          15315201                 000000000000000000000000000000000000000000000000000000000000000000000000000000000405644270000000000000000000000000000                                                                                                                                                                                                                                                                                                                                
0002639687******0224         0000010000000000000000000000000000000000000000000000639463180447170107      ATM     0001                                          15315201                 000000000000000000000000000000000000000000000000000000000000000000000000000000000351979230000000000000000000000000000                                                                                                                                                                                                                                                                                                                                
0002639687******0224         0000010000000000000000000000000000000000000000000000639594180543170107      ATM     0001                                          15315201                 000000000000000000000000000000000000000000000000000000000000000000000000000000000351979230000000000000000000000000000                                                                                                                                                                                                                                                                                                                                
0002639687******0224         0000010000000000000000000000000000000000000000000000639684180618170107      ATM     0001                                          15315201                 000000000000000000000000000000000000000000000000000000000000000000000000000000000351979230000000000000000000000000000                                                                                                                                                                                                                                                                                                                                
0002639687******0224         0000010000000000000000000000000000000000000000000000639761180654170107      ATM     0001                                          15315201                 000000000000000000000000000000000000000000000000000000000000000000000000000000000351979230000000000000000000000000000                                                                                                                                                                                                                                                                                                                                
0002639687******0224         0000010000000000000000000000000000000000000000000000639844180726170107      ATM     0001                                          15315201                 000000000000000000000000000000000000000000000000000000000000000000000000000000000351979230000000000000000000000000000                                                                                                                                                                                                                                                                                                                                
0002639687******0224         0000010000000000000000000000000000000000000000000000639928180800170107      ATM     0001                                          15315201                 000000000000000000000000000000000000000000000000000000000000000000000000000000000351979230000000000000000000000000000                                                                                                                                                                                                                                                                                                                                
0002639687******0224         0000010000000000000000000000000000000000000000000000640022180834170107      ATM     0001                                          15315201                 000000000000000000000000000000000000000000000000000000000000000000000000000000000351979230000000000000000000000000000                                                                                                                                                                                                                                                                                                                                
0002639687******0224         0000010000000000000000000000000000000000000000000000640127180911170107      ATM     0001                                          15315201                 000000000000000000000000000000000000000000000000000000000000000000000000000000000351979230000000000000000000000000000                                                                                                                                                                                                                                                                                                                                
0002639687******0224         0000010000000000000000000000000000000000000000000000640210180945170107      ATM     0001                                          15315201                 000000000000000000000000000000000000000000000000000000000000000000000000000000000351979230000000000000000000000000000                                                                                                                                                                                                                                                                                                                                
0002639687******0224         0000010000000000000000000000000000000000000000000000640301181019170107      ATM     0001                                          15315201                 000000000000000000000000000000000000000000000000000000000000000000000000000000000351979230000000000000000000000000000                                                                                                                                                                                                                                                                                                                                
0002621445******1592         0000001000000000000000000000000000000000000000000000649432191140170107      ATM     0001                                          15315201                 000000000000000000000000000000000000000000000000000000000000000000000000000000000244593730000000000000000000000000000                                                                                                                                                                                                                                                                                                                                
0002484777******5791         0000003000000000000000000000000000000000000000000000653676193745170107      ATM     0001                                          15315201                 000000000000000000000000000000000000000000000000000000000000000000000000000000000270610950000000000000000000000000000                                                                                                                                                                                                                                                                                                                                
0002639687******2464         0000001500000000000000000000000000000000000000000000658151200748170107      ATM     0001                                          15315201                 000000000000000000000000000000000000000000000000000000000000000000000000000000000355130510000000000000000000000000000                                                                                                                                                                                                                                                                                                                                
